S0140000414443746F444953504C41592E737265634F
S11300000C942A000C9447000C9447000C9447006D
S11300100C9447000C9447000C9447000C94470040
S11300200C9447000C9447000C9447000C94470030
S11300300C9447000C9447000C9447000C94470020
S11300400C9447000C9447000C9447000C94470010
S11300500C94470011241FBECFE5D4E0DEBFCDBF12
S113006010E0A0E6B0E0E2E0F2E002C005900D92FC
S1130070A436B107D9F710E0A4E6B0E001C01D92A0
S1130080A93CB107E1F70E947D000C94FF000C9499
S1130090000087E886B980EC87B90895979A8FEFB6
S11300A091EEA4E081509040A040E1F700C0000030
S11300B097988FEF91EEA4E081509040A040E1F733
S11300C000C0000008955D9BFECF8CB90895CF93C6
S11300D0DF93EC018881882331F021960E9463002C
S11300E089918823D9F7DF91CF91089588E089B960
S11300F0539A80B5866880BD08951ABA8FEF87BB7E
S1130100D79A88BB8FEF93EDA0E381509040A04035
S1130110E1F700C0000018BA8FEF99E6A8E181501A
S11301209040A040E1F700C000000E9449000E94F6
S11301307600C4E6D0E000E610E0369A349BFECFA9
S113014084B195B18093C80090E0BE014AE050E0CC
S11301500E94BA00CE010E946700C8010E94670095
S11301608FEF93EDA0E381509040A040E1F700C0F1
S11301700000E3CFFB019F01E8944230C4F0453214
S1130180B4F44A3029F497FB1EF4909581959F4F5F
S1130190642F77270E94EB00805D8A330CF0895D21
S11301A08193CB010097A1F716F45DE2519310827D
S11301B0C9010C94DB00DC01FC01672F71917723EA
S11301C0E1F7329704C07C916D9370836291AE170E
S11301D0BF07C8F30895AA1BBB1B51E107C0AA1FA0
S11301E0BB1FA617B70710F0A61BB70B881F991FD4
S11301F05A95A9F780959095BC01CD010895F8947E
S1050200FFCF2A
S10702020D0A0000DD
S9030000FC
