S01600006C65645F616C6C5F696E5F6F6E652E737265636A
S113000012C02CC02BC02AC029C028C027C026C0BB
S113001025C024C023C022C021C020C01FC01EC0D0
S11300201DC01CC01BC011241FBECFE5D4E0DEBF21
S1130030CDBF10E0A0E6B0E0E2E5F1E002C005903B
S11300400D92A036B107D9F710E0A0E6B0E001C0E8
S11300501D92A036B107E1F702D079C0D1CF8FEF5E
S113006087BBEFE031E022E094E088E0F9E0A6E02D
S1130070E8BB4FE35DE063E0415050406040E1F78E
S113008000C0000038BB4FE35DE063E041505040E6
S11300906040E1F700C0000028BB4FE35DE063E08F
S11300A0415050406040E1F700C0000098BB4FE36E
S11300B05DE063E0415050406040E1F700C0000063
S11300C088BB4FE35DE063E0415050406040E1F79E
S11300D000C0000088BB4FE35DE063E04150504046
S11300E06040E1F700C0000098BB4FE35DE063E0CF
S11300F0415050406040E1F700C0000028BB4FE38E
S11301005DE063E0415050406040E1F700C0000012
S113011038BB4FE35DE063E0415050406040E1F79D
S113012000C00000F8BB4FE35DE063E04150504085
S11301306040E1F700C00000A8BB4FE35DE063E06E
S1130140415050406040E1F700C0000091CFF89466
S1050150FFCFDB
S9030000FC
