:030000000200E516
:0C00E500787FE4F6D8FD75811902012C2B
:100234000A0C3F065B4F666D7D077F6F0218000056
:04024400021600009E
:10021400E4FDFCC3ED9FEC9E5015E4FBFA0BBB0020
:0F022400010AEB647F4A70F50DBD00010C80E408
:0102330022A8
:1001C600758901758CF0E4F58AD28CD2AFD2A97507
:1001D600A0FF7590FF20B00F7F967E0012021405D7
:1001E60017E5177002051620B11AD3E5179400E536
:1001F600169400400F7F967E00120214E51715171D
:0E0206007002151620B2CEE4F516F51780C76B
:03000B0002000EE2
:10000E00C0E0C0F0C0D075D000C000C004C005C0B4
:10001E0006C007AE16AF177C037DE81201718F087C
:10002E00AE16AF177C037DE81201717E007F64CFA0
:10003E00CDCFCECCCE1201718F09AE16AF177C0389
:10004E007DE81201717E007F64CFCDCFCECCCE1273
:10005E0001717E007F0ACFCDCFCECCCE1201718F33
:10006E000AAE16AF177C037DE81201717E007F6425
:10007E00CFCDCFCECCCE1201717E007F0ACFCDCFA9
:10008E00CECCCE1201718D0BC290C291AF197401FC
:10009E00A807088002C333D8FCF590AF1974082F57
:1000AE00F8E6240CF8E6F5A0E51964034518700689
:1000BE00F518F51980080519E51970020518C28D95
:1000CE00758CF0758A00D007D006D005D004D0000C
:0700DE00D0D0D0F0D0E032D9
:1000F1000201C6E493A3F8E493A34003F68001F25E
:1001010008DFF48029E493A3F85407240CC8C3330F
:10011100C4540F4420C8834004F456800146F6DFDE
:10012100E4800B0102040810204080900234E47E38
:10013100019360BCA3FF543F30E509541FFEE493D3
:10014100A360010ECF54C025E060A840B8E493A39A
:10015100FAE493A3F8E493A3C8C582C8CAC583CAC5
:10016100F0A3C8C582C8CAC583CADFE9DEE780BE7D
:0102480000B5
:10017100BC000BBE0029EF8DF084FFADF022E4CC72
:10018100F875F008EF2FFFEE33FEEC33FCEE9DEC3B
:10019100984005FCEE9DFE0FD5F0E9E4CEFD22ED81
:1001A100F8F5F0EE8420D21CFEADF075F008EF2FCB
:1001B100FFED33FD4007985006D5F0F222C398FDBC
:0501C1000FD5F0EA2259
:00000001FF
