:0D0991003F065B4F666D7D077F673F065B8D
:10097100E4FDFCC3ED9FEC9E5015E4FBFA0BBB00BC
:0F098100010ABA04F8BBFBF50DBD00010C80E4C0
:010990002244
:1008F60078087C007D007BFF7A0979917E007F0A6B
:100906001208D078127C007D007BFF7A09799B7EE5
:10091600007F031208D07580B07590C07F647E009A
:1009260012097175150075160274122516F8E6F48B
:10093600F580900009AF8274082FF8E6F4F5907FF1
:10094600647E00120971E582158270021583E582C4
:10095600B4FFE2E583B4FFDDE51615167002151542
:0B096600C3E5156480948050C080AB96
:0300000002099E54
:0C099E00787FE4F6D8FD7581160208F69B
:10080000E709F608DFFA8046E709F208DFFA803EDA
:1008100088828C83E709F0A3DFFA8032E309F608C7
:10082000DFFA8078E309F208DFFA807088828C832F
:10083000E309F0A3DFFA806489828A83E0A3F608E3
:10084000DFFA805889828A83E0A3F208DFFA804CBD
:1008500080D280FA80C680D4806980F28033801094
:1008600080A680EA809A80A880DA80E280CA8033FD
:1008700089828A83ECFAE493A3C8C582C8CCC58375
:10088000CCF0A3C8C582C8CCC583CCDFE9DEE78045
:100890000D89828A83E493A3F608DFF9ECFAA9F0C4
:1008A000EDFB2289828A83ECFAE0A3C8C582C8CC1A
:1008B000C583CCF0A3C8C582C8CCC583CCDFEADE33
:1008C000E880DB89828A83E493A3F208DFF980CC95
:1008D00088F0EF60010E4E60C388F0ED2402B4048E
:1008E0000050B9F582EB2402B4040050AF23234535
:0608F00082239008507302
:00000001FF
