:03000000020B6888
:0C0B6800787FE4F6D8FD75816102092E4B
:100A98003031323031323334353637383950656F8A
:100AA800706C6520656E74657265643A20005374D5
:100AB80061626C696E67205049523A004D41582076
:100AC800616D6F756E7420313000436C6F736520F3
:100AD80074686520646F6F7200313233343536378D
:020AE80038399B
:080B1A00C291D2927F017E001E
:100B2200E4FDFCC3ED9FEC9E5015E4FBFA0BBB0009
:0F0B3200010ABA05F8BB5FF50DBD00010C80E4A8
:010B41002291
:0A0B74008FA0C290120B1AC2922249
:030B5B00F8E6FFBA
:0A0B5E008FA0D290120B1AC292224F
:100A320078517C007D007BFF7A0A79987E007F03E3
:100A42001208D078547C007D007BFF7A0A799B7E65
:100A5200007F0A1208D07FC0120B747550027451C5
:100A62002550120B5B7909745429120B5B7F637E4C
:100A720000120B227F10120B74E9600719E9C3946C
:100A82000050E47FC0120B74E55060091550E55028
:050A9200C3940050C9EF
:010A9700223C
:060AEA008B5E8A5F89604B
:100AF000E4F561AB5EAA5FA96075F002E561A4F55B
:100B00008285F0831208F6FFAEF04E600C120B5E89
:090B10007F0A7E00120B2280DA3C
:010B190022B9
:100B42007F38120B747F01120B747F06120B747FB5
:090B52000C120B747F80020B747D
:10092E00E4F50878097C00FD7BFF7A0A79A5FE7F45
:10093E00111208D0781A7C007D007BFF7A0A79B6F6
:10094E007E007F0E1208D078287C007D007BFF7A17
:10095E000A79C47E007F0E1208D078367C007D00A6
:10096E007BFF7A0A79D27E007F0F1208D0E4F5451C
:10097E00754601F58075A0FF7590FF120B42E4F5E8
:10098E0045741A2545F8E6FF6007120B5E05458093
:10099E00F0120A32120B42E4F54574092545F8E6C9
:1009AE00FF6007120B5E054580F07FC0120B747F4F
:0409BE0030120B5E8A
:1009C20078477C007D007BFF7A0A79E17E007F090F
:1009D2001208D030814CE5087048E546C3940940BE
:1009E20030120B42E4F54574282545F8E6FF60070E
:1009F200120B5E054580F07FC0120B74E4F545745E
:100A0200362545F8E6FF6007120B5E054580F0804B
:100A1200FE7FC0120B7474472546F8E6FF120B5E88
:0E0A22000546208103E4F50830819575080132
:020A30008090B4
:10080000E709F608DFFA8046E709F208DFFA803EDA
:1008100088828C83E709F0A3DFFA8032E309F608C7
:10082000DFFA8078E309F208DFFA807088828C832F
:10083000E309F0A3DFFA806489828A83E0A3F608E3
:10084000DFFA805889828A83E0A3F208DFFA804CBD
:1008500080D280FA80C680D4806980F28033801094
:1008600080A680EA809A80A880DA80E280CA8033FD
:1008700089828A83ECFAE493A3C8C582C8CCC58375
:10088000CCF0A3C8C582C8CCC583CCDFE9DEE78045
:100890000D89828A83E493A3F608DFF9ECFAA9F0C4
:1008A000EDFB2289828A83ECFAE0A3C8C582C8CC1A
:1008B000C583CCF0A3C8C582C8CCC583CCDFEADE33
:1008C000E880DB89828A83E493A3F208DFF980CC95
:1008D00088F0EF60010E4E60C388F0ED2402B4048E
:1008E0000050B9F582EB2402B4040050AF23234535
:0608F00082239008507302
:1008F600BB0110E58229F582E5833AF583E0F5F040
:10090600A3E0225009E92582F886F008E622BBFE1C
:100916000AE92582F8E2F5F008E222E5832AF58362
:08092600E993F5F0A3E9932227
:00000001FF
