:03000000020006F5
:0C000600787FE4F6D8FD75810802004DFB
:0300E9000108000B
:1000BB00E4FDFCEFFBC3ED9BEC94005015E4FBFA65
:1000CB000BBB00010ABA06F8BB27F50DBD00010CEE
:0200DB0080E1C2
:0100DD002200
:0300030002009266
:10009200C0E0C0D075D000C002C003C004C005C01B
:1000A20007C2917F641200BBD291D007D005D00461
:0900B200D003D002D0D0D0E0321E
:0B00DE007580FFC288D2A8D2AF80FE60
:100012000200DEE493A3F8E493A34003F68001F226
:1000220008DFF48029E493A3F85407240CC8C333EF
:10003200C4540F4420C8834004F456800146F6DFBE
:10004200E4800B01020408102040809000E9E47E65
:10005200019360BCA3FF543F30E509541FFEE493B3
:10006200A360010ECF54C025E060A840B8E493A37A
:10007200FAE493A3F8E493A3C8C582C8CAC583CAA5
:10008200F0A3C8C582C8CAC583CADFE9DEE780BE5D
:0100EC000013
:00000001FF
