:030000000208F6FD
:0C08F600787FE4F6D8FD75812802093DEA
:100AF000416363657373204772616E74656400457A
:0F0B00006E7465722070617373776F72643A0060
:030B4E000128007B
:070AC900120B2A7F0A7E00D8
:100AD000E4FDFCC3ED9FEC9E5015E4FBFA0BBB005C
:0F0AE000010ABA05F8BB5FF50DBD00010C80E4FB
:010AEF0022E4
:100B2A008FA0C292C291D2907F017E00120AD0C2D7
:020B3A00902207
:100B3C008FA0D292C291D2907F017E00120AD0C2B5
:020B4C009022F5
:100B0F007F38120AC97F0F120AC97F01120AC97FE3
:0B0B1F0080120B2A7F0A7E00020AD021
:100A6D00D283D282D281D280C286C285C2842080B6
:100A7D00047F3180132081047F34800C2082047F19
:0E0A8D003780052083057F2A120B3C052822A6
:100A9B00D283D282D281D280C286C285C284208088
:100AAB00047F3280132081047F35800C2082047FE9
:0E0ABB003880052083057F30120B3C05282271
:100A3E00D283D282D281D280C286C285C2842080E5
:100A4E00047F33800C2081047F3680052082077F4F
:0F0A5E0039120B3C8006208303120A0E05282252
:100A0E00E4F51878197C00FD7BFF7A0A79F0FE7FF9
:100A1E000F1208D0120B0F74192518F8E6FF600E8E
:100A2E00120B3C7F017E00120AD0051880E980FE71
:10098200E478087C00FD7BFF7A0A79FFFE7F101273
:1009920008D07580FFE4F5A0F590120B0F7F1E7E44
:1009A20000120AD0E4F9740829F8E6FF6009120B74
:1009B2003C120ACC0980EF7FC0120B2A7FC87E004E
:1009C200120AD0D286D285D284C283C282C281C2A6
:1009D20080208405120A6D800E208505120A9B80F4
:1009E2000620860A120A3E7F327E00120AD0E528CD
:1009F200B410057FC0120B2AE528B420C67F01126D
:0C0A02000B2A7F80120B2AE4F52880B735
:10090200020982E493A3F8E493A34003F68001F280
:1009120008DFF48029E493A3F85407240CC8C333F6
:10092200C4540F4420C8834004F456800146F6DFC5
:10093200E4800B0102040810204080900B4EE47EFC
:10094200019360BCA3FF543F30E509541FFEE493BA
:10095200A360010ECF54C025E060A840B8E493A381
:10096200FAE493A3F8E493A3C8C582C8CAC583CAAC
:10097200F0A3C8C582C8CAC583CADFE9DEE780BE64
:010B510000A3
:10080000E709F608DFFA8046E709F208DFFA803EDA
:1008100088828C83E709F0A3DFFA8032E309F608C7
:10082000DFFA8078E309F208DFFA807088828C832F
:10083000E309F0A3DFFA806489828A83E0A3F608E3
:10084000DFFA805889828A83E0A3F208DFFA804CBD
:1008500080D280FA80C680D4806980F28033801094
:1008600080A680EA809A80A880DA80E280CA8033FD
:1008700089828A83ECFAE493A3C8C582C8CCC58375
:10088000CCF0A3C8C582C8CCC583CCDFE9DEE78045
:100890000D89828A83E493A3F608DFF9ECFAA9F0C4
:1008A000EDFB2289828A83ECFAE0A3C8C582C8CC1A
:1008B000C583CCF0A3C8C582C8CCC583CCDFEADE33
:1008C000E880DB89828A83E493A3F208DFF980CC95
:1008D00088F0EF60010E4E60C388F0ED2402B4048E
:1008E0000050B9F582EB2402B4040050AF23234535
:0608F00082239008507302
:00000001FF
