:030000000208995A
:0C089900787FE4F6D8FD75810A02083073
:0A080000C2918FA0D2907F017E000C
:10080A00E4FDFCC3ED9FEE6480F8EC64809850151B
:10081A00E4FBFA0BBB00010ABA04F8BBFCF50DBDF8
:05082A0000010C80DE5E
:01082F0022A6
:10086000750A0A750A0A750A0A750A0A750A0AE4F7
:10087000F50AF50AF50AF50AF50A750A09F50A22D4
:0808A500C292120800C2902269
:100880007F381208A57F011208A57F061208A57FF0
:090890000C1208A57F800208A5E6
:0808AD00D292120800C2902251
:10083000120880750826E50875F00A8485F00974A9
:10084000302509F509E50875F00A84F92430FF120E
:1008500008ADAF091208AD7F147E0012080A80D0DF
:00000001FF
