:03000000020A0CE5
:0C0A0C00787FE4F6D8FD758118020971AE
:0D09FF003F065B4F666D7D077F673F065B1F
:10097100D280D281C282D294D295C296C284D285CB
:10098100D286C290D291D2921208F6D280D281C27E
:1009910082D294D295C296D284C285D286D290C296
:1009A10091D292120A18C280D281D282C294D29577
:1009B100D296D284D285C286D290D291C2921208A6
:1009C100F6D280C281D282D294C295D296D284D2FA
:0E09D10085C286D290D291C292120A188092EC
:1008F60078087C007D007BFF7A0979FF7E007F0AFD
:100906001208D078127C007D007BFF7A0A79097E76
:10091600007F031208D075B0B075A0C07F647E005A
:100926001209DF75170075180274122518F8E6F417
:10093600F5B075150075160974082516F8E6F4F570
:10094600A07F647E001209DFE516151670021515E4
:10095600C3E5156480948050DFE5181518700215FC
:0A09660017C3E5176480948050BFAA
:010970002264
:070A18007F2C7E010209DFC3
:1009DF00E4FDFCC3ED9FEC9E5015E4FBFA0BBB004E
:0F09EF00010ABA04F8BBFBF50DBD00010C80E452
:0109FE0022D6
:10080000E709F608DFFA8046E709F208DFFA803EDA
:1008100088828C83E709F0A3DFFA8032E309F608C7
:10082000DFFA8078E309F208DFFA807088828C832F
:10083000E309F0A3DFFA806489828A83E0A3F608E3
:10084000DFFA805889828A83E0A3F208DFFA804CBD
:1008500080D280FA80C680D4806980F28033801094
:1008600080A680EA809A80A880DA80E280CA8033FD
:1008700089828A83ECFAE493A3C8C582C8CCC58375
:10088000CCF0A3C8C582C8CCC583CCDFE9DEE78045
:100890000D89828A83E493A3F608DFF9ECFAA9F0C4
:1008A000EDFB2289828A83ECFAE0A3C8C582C8CC1A
:1008B000C583CCF0A3C8C582C8CCC583CCDFEADE33
:1008C000E880DB89828A83E493A3F208DFF980CC95
:1008D00088F0EF60010E4E60C388F0ED2402B4048E
:1008E0000050B9F582EB2402B4040050AF23234535
:0608F00082239008507302
:00000001FF
