:030000000209E70B
:0C09E700787FE4F6D8FD75810A0208C98B
:1008000041540D0A00415445300D0A004154452B16
:10081000474D520D0A0041542B43574D4F44453D1F
:10082000310D0A0041542B43574A41503D22532277
:100830002C22313233343536373839220D0A004311
:1008400049504D55583D310D0A0041542B434950F4
:100850005345525645523D312C38300D0A00415413
:100860002B43495053544152543D342C225443504D
:10087000222C223138342E3130362E3135332E3180
:100880003439222C38300D0A0041542B434950533F
:10089000454E443D342C34350D0A00474554202F35
:1008A0007570646174653F6B65793D494B39595783
:1008B000344A454343585945335148266669656C67
:0908C00064313D3130390D0A00AC
:040983007F2C7E0146
:10098700E4FDFCE4FBFAC3EB9FEA9E50070BBB00B8
:0F099700010A80F20DBD00010CBC06E7BD27E48C
:0109A600222E
:1008C900E4F5B01209F3D2AFD2AC7BFF7A08790014
:1008D9001209A71209837BFF7A0879051209A71261
:1008E90009837BFF7A08790C1209A71209837BFF18
:1008F9007A0879161209A77FC87E001209877BFF3B
:100909007A0879241209A77FE07E2E1209877BFFD6
:100919007A08793F1209A71209837BFF7A08794A75
:100929001209A71209837BFF7A08795E1209A77F4A
:10093900207E031209877BFF7A0879891209A71299
:0D09490009837BFF7A08799B1209A780FEC5
:0C09F300758920759850758DFDD28E22FC
:0809FF008F993099FDC2992285
:070A07003098FDAF99C29881
:010A0E0022C5
:0609A7008B088A09890A91
:1009AD00E4FEAB08AA09A90A8E82758300120956C6
:0909BD00FF60061209FF0E80E93B
:0109C600220E
:030023000209C708
:0909C700C0D075D000C006C007C5
:1009D000309809AE99C298AF061209FF8E90C2985E
:0709E000D007D006D0D03291
:10095600BB010CE58229F582E5833AF583E0225056
:1009660006E92582F8E622BBFE06E92582F8E222A0
:0D097600E58229F582E5833AF583E49322BA
:00000001FF
