S01E0000416C6C5F696E5F6F6E655F776974685F62757A7A65722E73726563FA
S113000012C02CC02BC02AC029C028C027C026C0BB
S113001025C024C023C022C021C020C01FC01EC0D0
S11300201DC01CC01BC011241FBECFE5D4E0DEBF21
S1130030CDBF10E0A0E6B0E0E0E9F1E002C0059039
S11300400D92A036B107D9F710E0A0E6B0E001C0E8
S11300501D92A036B107E1F710D098C0D1CF18BADD
S113006084E082BB8FEF99E6A8E181509040A040E4
S1130070E1F700C0000012BA08958FEF87BB84E057
S113008081BB0F2EFFE0EF2EF02D01E012E0D4E053
S1130090C8E00F2EF9E0FF2EF02D0F2EF6E0DF2E34
S11300A0F02DDDDFE8BA8FEF93EDA0E381509040AF
S11300B0A040E1F700C00000D2DF08BB8FEF93ED52
S11300C0A0E381509040A040E1F700C0000018BBBD
S11300D08FEF93EDA0E381509040A040E1F700C082
S11300E00000D8BB8FEF93EDA0E381509040A04077
S11300F0E1F700C00000C8BB8FEF93EDA0E381508F
S11301009040A040E1F700C00000A9DFC8BB8FEF1A
S113011093EDA0E381509040A040E1F700C00000BF
S1130120D8BB8FEF93EDA0E381509040A040E1F75E
S113013000C0000018BB8FEF93EDA0E38150904006
S1130140A040E1F700C0000008BB8FEF93EDA0E3EF
S113015081509040A040E1F700C0000080DFF8BA71
S11301608FEF93EDA0E381509040A040E1F700C0F1
S11301700000D8BA8FEF93EDA0E381509040A040E7
S1130180E1F700C000006BDF6ADF8BCFF894FFCF8C
S9030000FC
