S0130000696F745F545F616E645F522E73726563CF
S11300000C942A000C9447000C9447000C9447006D
S11300100C9447000C9447000C9447000C94470040
S11300200C9447000C9447000C9447000C94470030
S11300300C9447000C9447000C9447000C94470020
S11300400C9447000C9447000C9447000C94470010
S11300500C94470011241FBECFE5D4E0DEBFCDBF12
S113006011E0A0E6B0E0ECE5F3E002C005900D92EB
S1130070A833B107D9F711E0A8E3B1E001C01D929C
S1130080AD39B107E1F70E947D000C94AC010C94EA
S1130090000087E886B980EC87B90895DF9A8FEF6E
S11300A091EEA4E081509040A040E1F700C0000030
S11300B0DF988FEF91EEA4E081509040A040E1F7EB
S11300C000C0000008955D9BFECF8CB90895CF93C6
S11300D0DF93EC018881882331F021960E9463002C
S11300E089918823D9F7DF91CF91089588E089B960
S11300F0539A80B5866880BD089580E88ABB8FEFE7
S113010087BBD79A0E9449000E94760080E690E05F
S11301100E9467008FEF97EAA1E681509040A040CB
S1130120E1F700C000008BE690E00E9467008FEFCB
S113013097EAA1E681509040A040E1F700C000009A
S113014082E790E00E9467008FEF97EAA1E6815072
S11301509040A040E1F700C000008FEF97EAA1E6CD
S113016081509040A040E1F700C000000E944E0082
S11301700E944E000BE610E00F2EFDE9EF2EF0E09A
S1130180FF2EF02D0F2EFBEACF2EF0E0DF2EF02D08
S11301900F2EFFEBAF2EF0E0BF2EF02D0F2EFAEE58
S11301A08F2EF0E09F2EF02D0F2EFCEF6F2EF0E03F
S11301B07F2EF02DC8E3D1E00F2EF5E24F2EF1E0B3
S11301C05F2EF02D0F2EF8E22F2EF1E03F2EF02DB2
S11301D0C8010E9467008FEF99E6A8E18150904022
S11301E0A040E1F700C00000C7010E9467008FEF44
S11301F099E6A8E181509040A040E1F700C00000DA
S1130200C6010E9467008FEF99E6A8E181509040F3
S1130210A040E1F700C00000C5010E9467008FEF15
S113022097EAA1E681509040A040E1F700C00000A9
S11302300E944E008FEF97EAA1E681509040A040C3
S1130240E1F700C000000E944E008FEF97EAA1E69C
S113025081509040A040E1F700C00000C4010E941A
S113026067008FEF93EDA0E381509040A040E1F749
S113027000C00000C3010E946700369A349BFECF81
S113028084B195B180939C0190E0BE014AE050E0B6
S11302900E946701CE010E946700C2010E946700AC
S11302A08FEF97EAA1E681509040A040E1F700C0AB
S11302B00000C1010E9467000E944E0080919C01D1
S11302C0883018F49FE098BB83CF18BA81CFFB0124
S11302D09F01E8944230C4F04532B4F44A3029F422
S11302E097FB1EF4909581959F4F642F77270E946A
S11302F09801805D8A330CF0895D8193CB0100976E
S1130300A1F716F45DE251931082C9010C9488019F
S1130310DC01FC01672F71917723E1F7329704C068
S11303207C916D9370836291AE17BF07C8F30895F3
S1130330AA1BBB1B51E107C0AA1FBB1FA617B70707
S113034010F0A61BB70B881F991F5A95A9F7809523
S10F03509095BC01CD010895F894FFCFF6
S113035C41542B43575141500D0A00415445310D22
S113036C0A0041542B43574A41503D222077696679
S113037C69206E616D6520222C222020207061730F
S113038C73776F726420202020220D0A0041542BB5
S113039C4349504D55583D310D0A0041542B4349A6
S11303AC505345525645523D312C38300D0A0041BC
S11303BC542B43495053544152543D342C225443EE
S11303CC50222C223138342E3130362E3135332E06
S11303DC313439222C38300D0A0041542B43495006
S11303EC53454E443D342C34340D0A0047455420B7
S11303FC2F7570646174653F6B65793D5749475738
S113040C4F345456384C46534642484D266669651B
S113041C6C64313D000D0A0041542B434950434C4C
S10B042C4F53453D340D0A0055
S9030000FC
