S00B00004144432E7372656351
S11300000C942A000C9447000C9447000C9447006D
S11300100C9447000C9447000C9447000C94470040
S11300200C9447000C9447000C9447000C94470030
S11300300C9447000C9447000C9447000C94470020
S11300400C9447000C9447000C9447000C94470010
S11300500C94470011241FBECFE5D4E0DEBFCDBF12
S113006010E0A0E6B0E0E0EFF0E002C005900D92F1
S1130070A036B107D9F710E0A0E6B0E001C01D92A8
S1130080A136B107E1F70E944E000C9476000C945F
S1130090000087E886B980EC87B9089514BA8FEF19
S11300A087BBD79A0E9449002FEF369A349BFECF24
S11300B084B195B1809360008D3010F418BAF5CFF7
S11300C028BBDF9A8FEF91EEA4E081509040A040CE
S11300D0E1F700C00000DF988FEF91EEA4E08150BB
S11300E09040A040E1F700C00000DFCFF894FFCFBC
S9030000FC
