:030000000209E60C
:0C09E600787FE4F6D8FD75810A0208C88D
:1008000041540D0A00415445300D0A004154452B16
:10081000474D520D0A0041542B43574D4F44453D1F
:10082000310D0A0041542B43574A41503D22532277
:100830002C22313233343536373839220D0A004311
:1008400049504D55583D310D0A0041542B434950F4
:100850005345525645523D312C38300D0A00415413
:100860002B43495053544152543D342C225443504D
:10087000222C223138342E3130362E3135332E3180
:100880003439222C38300D0A0041542B434950533F
:10089000454E443D342C34340D0A00474554202F36
:1008A0007570646174653F6B65793D494B39595783
:1008B000344A454343585945335148266669656C67
:0808C00064313D38380D0A00D7
:040982007F2C7E0147
:10098600E4FDFCE4FBFAC3EB9FEA9E50070BBB00B9
:0F099600010A80F20DBD00010CBC06E7BD27E48D
:0109A500222F
:1008C800E4F5B01209F2D2AFD2AC7BFF7A08790016
:1008D8001209A61209827BFF7A0879051209A61265
:1008E80009827BFF7A08790C1209A61209827BFF1C
:1008F8007A0879161209A67FC87E001209867BFF3E
:100908007A0879241209A67FE07E2E1209867BFFD9
:100918007A08793F1209A61209827BFF7A08794A78
:100928001209A61209827BFF7A08795E1209A67F4E
:10093800207E031209867BFF7A0879891209A6129C
:0D09480009827BFF7A08799B1209A680FEC8
:0C09F200758920759850758DFDD28E22FD
:0809FE008F993099FDC2992286
:070A06003098FDAF99C29882
:010A0D0022C6
:0609A6008B088A09890A92
:1009AC00E4FEAB08AA09A90A8E82758300120955C8
:0909BC00FF60061209FE0E80E93D
:0109C500220F
:030023000209C609
:0909C600C0D075D000C006C007C6
:1009CF00309809AE99C298AF061209FE8E90C29860
:0709DF00D007D006D0D03292
:10095500BB010CE58229F582E5833AF583E0225057
:1009650006E92582F8E622BBFE06E92582F8E222A1
:0D097500E58229F582E5833AF583E49322BB
:00000001FF
