S01500006C65645F626F74685F736964652E73726563CA
S113000012C02CC02BC02AC029C028C027C026C0BB
S113001025C024C023C022C021C020C01FC01EC0D0
S11300201DC01CC01BC011241FBECFE5D4E0DEBF21
S1130030CDBF10E0A0E6B0E0E2ECF0E002C0059035
S11300400D92A036B107D9F710E0A0E6B0E001C0E8
S11300501D92A036B107E1F702D031C0D1CF8FEFA6
S113006087BB20E030E063E070E041E050E000E076
S113007010E0C3E0D0E002C061507040FA01022EEB
S113008002C0EE0FFF1F0A94E2F7CA01062E02C057
S1130090880F991F0A94E2F78E2B88BB8FE39DE0AB
S11300A0A3E081509040A040E1F700C000002F5F22
S11300B03F4F2230310504F39801BE01DFCFF8949D
S10500C0FFCF6C
S9030000FC
