:100000000C942A000C9447000C9447000C94470071
:100010000C9447000C9447000C9447000C94470044
:100020000C9447000C9447000C9447000C94470034
:100030000C9447000C9447000C9447000C94470024
:100040000C9447000C9447000C9447000C94470014
:100050000C94470011241FBECFE5D4E0DEBFCDBF16
:1000600010E0A0E6B0E0E0EFF0E002C005900D92F5
:10007000A036B107D9F710E0A0E6B0E001C01D92AC
:10008000A036B107E1F70E9449000C9476000C9469
:1000900000008FEF8ABB87BB84BB81BB4FEF20E999
:1000A00031E04BBB88EC90E0F9013197F1F7019713
:1000B000D9F748BB88EE93E0F9013197F1F7019742
:1000C000D9F745BB42BB88EE93E0F9013197F1F7D0
:1000D0000197D9F71BBA18BA15BA12BA88E893E192
:1000E000F9013197F1F70197D9F7DBCFF894FFCFFA
:00000001FF
