:03000000020800F3
:0C080000787FE4F6D8FD758117020847E8
:10096E000A089080F8829299B0A4F9C00212A4F9F4
:10088C0075B0C075A0C0D280D281C282D294D295EC
:10089C00C296C284D285D286C290D291D2921208CC
:1008AC00FED280D281C282D294D295C296D284C218
:1008BC0085D286D290C291D29212097FC280D28107
:1008CC00D282C294D295D296D284D285C286D2904C
:1008DC00D291C2921208FED280C281D282D294C22C
:1008EC0095D296D284D285C286D290D291C29202EF
:0208FC00097F72
:1008FE0075160075170174122517F8E6F5B0751404
:10090E000075150974082515F8E6F5A07F647E00BC
:10091E00120940E515151570021514C3E51494005F
:10092E0050E2E517151770021516C3E51694005020
:02093E00C522D0
:07097F007F2C7E01020940FC
:10094000E4F514F515C3E5159FE5149E501FE4F575
:1009500016F5170517E51770020516B4FBF5E51631
:0E096000B404F00515E51570DC051480D822EE
:10080C0002088CE493A3F8E493A34003F68001F26E
:10081C0008DFF48029E493A3F85407240CC8C333ED
:10082C00C4540F4420C8834004F456800146F6DFBC
:10083C00E4800B010204081020408090096EE47ED5
:10084C00019360BCA3FF543F30E509541FFEE493B1
:10085C00A360010ECF54C025E060A840B8E493A378
:10086C00FAE493A3F8E493A3C8C582C8CAC583CAA3
:10087C00F0A3C8C582C8CAC583CADFE9DEE780BE5B
:01097E000078
:00000001FF
