:03000000020A0CE5
:0C0A0C00787FE4F6D8FD75813D0208F605
:1009650047554C4C55204248414920415659412054
:1009750043484500000000000044554D20444144D3
:10098500414B41204B524559412043484500000009
:02099500000060
:090997007F381209D97F0A7E00A5
:1009A000E4FDFCC3ED9FEC9E5015E4FBFA0BBB008D
:0F09B000010ABA04F8BBFBF50DBD00010C80E491
:0109BF002215
:1009D9008FA0C282C283D2847F017E001209A0C285
:0209E900842266
:1009EB008FA0D282C283D2847F017E001209A0C263
:0209FB00842254
:1009C0001209977F0F1209997F011209997F8012EE
:0909D00009D97F0A7E000209A08A
:0F09FD001209977FC01209D97F0A7E000209A054
:1008F60078087C007D007BFF7A0979657E007F1988
:100906001208D078217C007D007BFF7A09797E7EF3
:10091600007F191208D0E4F53AF53BF53CF53D1297
:1009260009C07408253BF8E6FF60141209EB053B85
:10093600E53B7002053A7F0F7E001209A080E312A4
:1009460009FD7421253DF8E6FF60A51209EB053D7A
:0F095600E53D7002053C7F0F7E001209A080E393
:10080000E709F608DFFA8046E709F208DFFA803EDA
:1008100088828C83E709F0A3DFFA8032E309F608C7
:10082000DFFA8078E309F208DFFA807088828C832F
:10083000E309F0A3DFFA806489828A83E0A3F608E3
:10084000DFFA805889828A83E0A3F208DFFA804CBD
:1008500080D280FA80C680D4806980F28033801094
:1008600080A680EA809A80A880DA80E280CA8033FD
:1008700089828A83ECFAE493A3C8C582C8CCC58375
:10088000CCF0A3C8C582C8CCC583CCDFE9DEE78045
:100890000D89828A83E493A3F608DFF9ECFAA9F0C4
:1008A000EDFB2289828A83ECFAE0A3C8C582C8CC1A
:1008B000C583CCF0A3C8C582C8CCC583CCDFEADE33
:1008C000E880DB89828A83E493A3F208DFF980CC95
:1008D00088F0EF60010E4E60C388F0ED2402B4048E
:1008E0000050B9F582EB2402B4040050AF23234535
:0608F00082239008507302
:00000001FF
